{
  "contractName": "UsdtSafeTransfer",
  "abi": [
    {
      "inputs": [
        {
          "internalType": "contract IERC20",
          "name": "token",
          "type": "address"
        }
      ],
      "stateMutability": "nonpayable",
      "type": "constructor"
    },
    {
      "anonymous": false,
      "inputs": [
        {
          "indexed": true,
          "internalType": "address",
          "name": "previousOwner",
          "type": "address"
        },
        {
          "indexed": true,
          "internalType": "address",
          "name": "newOwner",
          "type": "address"
        }
      ],
      "name": "OwnershipTransferred",
      "type": "event"
    },
    {
      "inputs": [],
      "name": "owner",
      "outputs": [
        {
          "internalType": "address",
          "name": "",
          "type": "address"
        }
      ],
      "stateMutability": "view",
      "type": "function"
    },
    {
      "inputs": [],
      "name": "renounceOwnership",
      "outputs": [],
      "stateMutability": "nonpayable",
      "type": "function"
    },
    {
      "inputs": [
        {
          "internalType": "address",
          "name": "newOwner",
          "type": "address"
        }
      ],
      "name": "transferOwnership",
      "outputs": [],
      "stateMutability": "nonpayable",
      "type": "function"
    },
    {
      "inputs": [
        {
          "internalType": "address",
          "name": "token_",
          "type": "address"
        },
        {
          "internalType": "uint256",
          "name": "_amount",
          "type": "uint256"
        }
      ],
      "name": "deposit",
      "outputs": [],
      "stateMutability": "nonpayable",
      "type": "function"
    },
    {
      "inputs": [
        {
          "internalType": "address",
          "name": "token_",
          "type": "address"
        },
        {
          "internalType": "address",
          "name": "_recepient",
          "type": "address"
        },
        {
          "internalType": "uint256",
          "name": "_amount",
          "type": "uint256"
        }
      ],
      "name": "withdraw",
      "outputs": [],
      "stateMutability": "nonpayable",
      "type": "function"
    },
    {
      "inputs": [
        {
          "internalType": "uint256",
          "name": "_amount",
          "type": "uint256"
        }
      ],
      "name": "depositSafe",
      "outputs": [],
      "stateMutability": "nonpayable",
      "type": "function"
    },
    {
      "inputs": [
        {
          "internalType": "address",
          "name": "_recepient",
          "type": "address"
        },
        {
          "internalType": "uint256",
          "name": "_amount",
          "type": "uint256"
        }
      ],
      "name": "withdrawSafe",
      "outputs": [],
      "stateMutability": "nonpayable",
      "type": "function"
    },
    {
      "inputs": [
        {
          "internalType": "address",
          "name": "spender",
          "type": "address"
        },
        {
          "internalType": "uint256",
          "name": "amount",
          "type": "uint256"
        }
      ],
      "name": "approveSafe",
      "outputs": [],
      "stateMutability": "nonpayable",
      "type": "function"
    },
    {
      "inputs": [
        {
          "internalType": "address",
          "name": "_recepient",
          "type": "address"
        },
        {
          "internalType": "uint256",
          "name": "amount",
          "type": "uint256"
        }
      ],
      "name": "increaseAllowance",
      "outputs": [],
      "stateMutability": "nonpayable",
      "type": "function"
    },
    {
      "inputs": [
        {
          "internalType": "address",
          "name": "_recepient",
          "type": "address"
        },
        {
          "internalType": "uint256",
          "name": "amount",
          "type": "uint256"
        }
      ],
      "name": "decreaseAllowance",
      "outputs": [],
      "stateMutability": "nonpayable",
      "type": "function"
    },
    {
      "inputs": [
        {
          "internalType": "address",
          "name": "_owner",
          "type": "address"
        },
        {
          "internalType": "address",
          "name": "_spender",
          "type": "address"
        }
      ],
      "name": "allowance",
      "outputs": [
        {
          "internalType": "uint256",
          "name": "",
          "type": "uint256"
        }
      ],
      "stateMutability": "view",
      "type": "function"
    },
    {
      "inputs": [],
      "name": "tokenAddress",
      "outputs": [
        {
          "internalType": "contract IERC20",
          "name": "",
          "type": "address"
        }
      ],
      "stateMutability": "view",
      "type": "function"
    }
  ],
  "bytecode": "0x608060405234801561001057600080fd5b506040516112e63803806112e683398101604081905261002f916100b5565b60006100426401000000006100b1810204565b60008054600160a060020a031916600160a060020a0383169081178255604051929350917f8be0079c531659141344cd1fd0a4f28419497f9722a3daafe3b4186f6b6457e0908290a35060018054600160a060020a031916600160a060020a03929092169190911790556100e3565b3390565b6000602082840312156100c6578081fd5b8151600160a060020a03811681146100dc578182fd5b9392505050565b6111f4806100f26000396000f3fe608060405234801561001057600080fd5b50600436106100d1576000357c0100000000000000000000000000000000000000000000000000000000900480638da5cb5b1161008e5780638da5cb5b1461013f5780639d76ea5814610169578063a457c2d71461017a578063d9caed121461018d578063dd62ed3e146101a0578063f2fde38b146101c157600080fd5b8063097fa8e3146100d657806339509351146100eb5780634433b033146100fe57806347e7ef24146101115780635a606e8114610124578063715018a614610137575b600080fd5b6100e96100e436600461107c565b6101d4565b005b6100e96100f9366004611033565b6101ef565b6100e961010c366004611033565b610240565b6100e961011f366004611033565b610291565b6100e9610132366004611033565b6102aa565b6100e96102ee565b600054600160a060020a03165b604051600160a060020a0390911681526020015b60405180910390f35b600154600160a060020a031661014c565b6100e9610188366004611033565b610372565b6100e961019b366004610ff8565b6103b6565b6101b36101ae366004610fc6565b610400565b604051908152602001610160565b6100e96101cf366004610fac565b610490565b6101ec33600154600160a060020a03169030846105a4565b50565b600054600160a060020a031633146102255760405160e560020a62461bcd02815260040161021c906110fb565b60405180910390fd5b60015461023c90600160a060020a03168383610658565b5050565b600054600160a060020a0316331461026d5760405160e560020a62461bcd02815260040161021c906110fb565b6000811161027a57600080fd5b60015461023c90600160a060020a03168383610735565b6000811161029e57600080fd5b61023c8233308461077e565b600054600160a060020a031633146102d75760405160e560020a62461bcd02815260040161021c906110fb565b60015461023c90600160a060020a031683836108fb565b600054600160a060020a0316331461031b5760405160e560020a62461bcd02815260040161021c906110fb565b60008054604051600160a060020a03909116907f8be0079c531659141344cd1fd0a4f28419497f9722a3daafe3b4186f6b6457e0908390a36000805473ffffffffffffffffffffffffffffffffffffffff19169055565b600054600160a060020a0316331461039f5760405160e560020a62461bcd02815260040161021c906110fb565b60015461023c90600160a060020a03168383610a45565b600054600160a060020a031633146103e35760405160e560020a62461bcd02815260040161021c906110fb565b600081116103f057600080fd5b6103fb838383610b9a565b505050565b60015460405160e160020a636eb1769f028152600160a060020a0384811660048301528381166024830152600092169063dd62ed3e9060440160206040518083038186803b15801561045157600080fd5b505afa158015610465573d6000803e3d6000fd5b505050506040513d601f19601f820116820180604052508101906104899190611094565b9392505050565b600054600160a060020a031633146104bd5760405160e560020a62461bcd02815260040161021c906110fb565b600160a060020a03811661053c5760405160e560020a62461bcd02815260206004820152602660248201527f4f776e61626c653a206e6577206f776e657220697320746865207a65726f206160448201527f6464726573730000000000000000000000000000000000000000000000000000606482015260840161021c565b60008054604051600160a060020a03808516939216917f8be0079c531659141344cd1fd0a4f28419497f9722a3daafe3b4186f6b6457e091a36000805473ffffffffffffffffffffffffffffffffffffffff1916600160a060020a0392909216919091179055565b604051600160a060020a03808516602483015283166044820152606481018290526106529085907f23b872dd00000000000000000000000000000000000000000000000000000000906084015b60408051601f198184030181529190526020810180517bffffffffffffffffffffffffffffffffffffffffffffffffffffffff167bffffffffffffffffffffffffffffffffffffffffffffffffffffffff1990931692909217909152610d0f565b50505050565b60405160e160020a636eb1769f028152306004820152600160a060020a038381166024830152600091839186169063dd62ed3e9060440160206040518083038186803b1580156106a757600080fd5b505afa1580156106bb573d6000803e3d6000fd5b505050506040513d601f19601f820116820180604052508101906106df9190611094565b6106e99190611130565b604051600160a060020a0385166024820152604481018290529091506106529085907f095ea7b300000000000000000000000000000000000000000000000000000000906064016105f1565b604051600160a060020a0383166024820152604481018290526103fb9084907fa9059cbb00000000000000000000000000000000000000000000000000000000906064016105f1565b60008085600160a060020a031660405180606001604052806025815260200161119a602591398051602090910120604051600160a060020a038089166024830152871660448201526064810186905260840160408051601f198184030181529181526020820180517bffffffffffffffffffffffffffffffffffffffffffffffffffffffff167bffffffffffffffffffffffffffffffffffffffffffffffffffffffff1990941693909317909252905161083891906110ac565b6000604051808303816000865af19150503d8060008114610875576040519150601f19603f3d011682016040523d82523d6000602084013e61087a565b606091505b50915091508180156108a45750805115806108a45750808060200190518101906108a4919061105c565b6108f35760405160e560020a62461bcd02815260206004820152601a60248201527f556e697377617056323a205452414e534645525f4641494c4544000000000000604482015260640161021c565b505050505050565b801580610987575060405160e160020a636eb1769f028152306004820152600160a060020a03838116602483015284169063dd62ed3e9060440160206040518083038186803b15801561094d57600080fd5b505afa158015610961573d6000803e3d6000fd5b505050506040513d601f19601f820116820180604052508101906109859190611094565b155b6109fc5760405160e560020a62461bcd02815260206004820152603660248201527f5361666545524332303a20617070726f76652066726f6d206e6f6e2d7a65726f60448201527f20746f206e6f6e2d7a65726f20616c6c6f77616e636500000000000000000000606482015260840161021c565b604051600160a060020a0383166024820152604481018290526103fb9084907f095ea7b300000000000000000000000000000000000000000000000000000000906064016105f1565b60405160e160020a636eb1769f028152306004820152600160a060020a0383811660248301526000919085169063dd62ed3e9060440160206040518083038186803b158015610a9357600080fd5b505afa158015610aa7573d6000803e3d6000fd5b505050506040513d601f19601f82011682018060405250810190610acb9190611094565b905081811015610b465760405160e560020a62461bcd02815260206004820152602960248201527f5361666545524332303a2064656372656173656420616c6c6f77616e6365206260448201527f656c6f77207a65726f0000000000000000000000000000000000000000000000606482015260840161021c565b604051600160a060020a03841660248201528282036044820181905290610b939086907f095ea7b300000000000000000000000000000000000000000000000000000000906064016105f1565b5050505050565b604080518082018252601981527f7472616e7366657228616464726573732c75696e7432353629000000000000006020918201528151600160a060020a0385811660248301526044808301869052845180840390910181526064909201845291810180517bffffffffffffffffffffffffffffffffffffffffffffffffffffffff167fa9059cbb0000000000000000000000000000000000000000000000000000000017905291516000928392871691610c5491906110ac565b6000604051808303816000865af19150503d8060008114610c91576040519150601f19603f3d011682016040523d82523d6000602084013e610c96565b606091505b5091509150818015610cc0575080511580610cc0575080806020019051810190610cc0919061105c565b610b935760405160e560020a62461bcd02815260206004820152601a60248201527f556e697377617056323a205452414e534645525f4641494c4544000000000000604482015260640161021c565b6000610d64826040518060400160405280602081526020017f5361666545524332303a206c6f772d6c6576656c2063616c6c206661696c656481525085600160a060020a0316610df79092919063ffffffff16565b8051909150156103fb5780806020019051810190610d82919061105c565b6103fb5760405160e560020a62461bcd02815260206004820152602a60248201527f5361666545524332303a204552433230206f7065726174696f6e20646964206e60448201527f6f74207375636365656400000000000000000000000000000000000000000000606482015260840161021c565b6060610e068484600085610e0e565b949350505050565b60603031831115610e8a5760405160e560020a62461bcd02815260206004820152602660248201527f416464726573733a20696e73756666696369656e742062616c616e636520666f60448201527f722063616c6c0000000000000000000000000000000000000000000000000000606482015260840161021c565b843b610edb5760405160e560020a62461bcd02815260206004820152601d60248201527f416464726573733a2063616c6c20746f206e6f6e2d636f6e7472616374000000604482015260640161021c565b60008086600160a060020a03168587604051610ef791906110ac565b60006040518083038185875af1925050503d8060008114610f34576040519150601f19603f3d011682016040523d82523d6000602084013e610f39565b606091505b5091509150610f49828286610f54565b979650505050505050565b60608315610f63575081610489565b825115610f735782518084602001fd5b8160405160e560020a62461bcd02815260040161021c91906110c8565b8035600160a060020a0381168114610fa757600080fd5b919050565b600060208284031215610fbd578081fd5b61048982610f90565b60008060408385031215610fd8578081fd5b610fe183610f90565b9150610fef60208401610f90565b90509250929050565b60008060006060848603121561100c578081fd5b61101584610f90565b925061102360208501610f90565b9150604084013590509250925092565b60008060408385031215611045578182fd5b61104e83610f90565b946020939093013593505050565b60006020828403121561106d578081fd5b81518015158114610489578182fd5b60006020828403121561108d578081fd5b5035919050565b6000602082840312156110a5578081fd5b5051919050565b600082516110be81846020870161116d565b9190910192915050565b60208152600082518060208401526110e781604085016020870161116d565b601f01601f19169190910160400192915050565b6020808252818101527f4f776e61626c653a2063616c6c6572206973206e6f7420746865206f776e6572604082015260600190565b60008219821115611168577f4e487b710000000000000000000000000000000000000000000000000000000081526011600452602481fd5b500190565b60005b83811015611188578181015183820152602001611170565b83811115610652575050600091015256fe7472616e7366657246726f6d28616464726573732c616464726573732c75696e7432353629a2646970667358221220cdc080e5f3bcba6b9fc16425be009df5ef001d84e21d0518afa029464176969864736f6c63430008040033",
  "immutableReferences": {},
  "source": "//SPDX-License-Identifier: MIT\npragma solidity ^0.8.0;\nabstract contract Context {\n    function _msgSender() internal view virtual returns (address) {\n        return msg.sender;\n    }\n\n    function _msgData() internal view virtual returns (bytes calldata) {\n        this; // silence state mutability warning without generating bytecode - see https://github.com/ethereum/solidity/issues/2691\n        return msg.data;\n    }\n}\n\npragma solidity ^0.8.0;\n\ninterface IERC20 {\n    /**\n     * @dev Returns the amount of tokens in existence.\n     */\n    function totalSupply() external view returns (uint256);\n    function balanceOf(address account) external view returns (uint256);\n    function transfer(address recipient, uint256 amount) external returns (bool);\n    function allowance(address owner, address spender) external view returns (uint256);\n    function approve(address spender, uint256 amount) external returns (bool);\n    function transferFrom(address sender, address recipient, uint256 amount) external returns (bool);\n    event Transfer(address indexed from, address indexed to, uint256 value);\n    event Approval(address indexed owner, address indexed spender, uint256 value);\n}\n\npragma solidity ^0.8.0;\nlibrary Address {\n    /**\n     * @dev Returns true if `account` is a contract.\n     *\n     * [IMPORTANT]\n     * ====\n     * It is unsafe to assume that an address for which this function returns\n     * false is an externally-owned account (EOA) and not a contract.\n     *\n     * Among others, `isContract` will return false for the following\n     * types of addresses:\n     *\n     *  - an externally-owned account\n     *  - a contract in construction\n     *  - an address where a contract will be created\n     *  - an address where a contract lived, but was destroyed\n     * ====\n     */\n    function isContract(address account) internal view returns (bool) {\n        // This method relies on extcodesize, which returns 0 for contracts in\n        // construction, since the code is only stored at the end of the\n        // constructor execution.\n\n        uint256 size;\n        // solhint-disable-next-line no-inline-assembly\n        assembly { size := extcodesize(account) }\n        return size > 0;\n    }\n    function sendValue(address payable recipient, uint256 amount) internal {\n        require(address(this).balance >= amount, \"Address: insufficient balance\");\n\n        // solhint-disable-next-line avoid-low-level-calls, avoid-call-value\n        (bool success, ) = recipient.call{ value: amount }(\"\");\n        require(success, \"Address: unable to send value, recipient may have reverted\");\n    }\n    function functionCall(address target, bytes memory data) internal returns (bytes memory) {\n      return functionCall(target, data, \"Address: low-level call failed\");\n    }\n    function functionCall(address target, bytes memory data, string memory errorMessage) internal returns (bytes memory) {\n        return functionCallWithValue(target, data, 0, errorMessage);\n    }\n    function functionCallWithValue(address target, bytes memory data, uint256 value) internal returns (bytes memory) {\n        return functionCallWithValue(target, data, value, \"Address: low-level call with value failed\");\n    }\n    function functionCallWithValue(address target, bytes memory data, uint256 value, string memory errorMessage) internal returns (bytes memory) {\n        require(address(this).balance >= value, \"Address: insufficient balance for call\");\n        require(isContract(target), \"Address: call to non-contract\");\n\n        // solhint-disable-next-line avoid-low-level-calls\n        (bool success, bytes memory returndata) = target.call{ value: value }(data);\n        return _verifyCallResult(success, returndata, errorMessage);\n    }\n    function functionStaticCall(address target, bytes memory data) internal view returns (bytes memory) {\n        return functionStaticCall(target, data, \"Address: low-level static call failed\");\n    }\n    function functionStaticCall(address target, bytes memory data, string memory errorMessage) internal view returns (bytes memory) {\n        require(isContract(target), \"Address: static call to non-contract\");\n\n        // solhint-disable-next-line avoid-low-level-calls\n        (bool success, bytes memory returndata) = target.staticcall(data);\n        return _verifyCallResult(success, returndata, errorMessage);\n    }\n    function functionDelegateCall(address target, bytes memory data) internal returns (bytes memory) {\n        return functionDelegateCall(target, data, \"Address: low-level delegate call failed\");\n    }\n\n    function functionDelegateCall(address target, bytes memory data, string memory errorMessage) internal returns (bytes memory) {\n        require(isContract(target), \"Address: delegate call to non-contract\");\n\n        // solhint-disable-next-line avoid-low-level-calls\n        (bool success, bytes memory returndata) = target.delegatecall(data);\n        return _verifyCallResult(success, returndata, errorMessage);\n    }\n\n    function _verifyCallResult(bool success, bytes memory returndata, string memory errorMessage) private pure returns(bytes memory) {\n        if (success) {\n            return returndata;\n        } else {\n            // Look for revert reason and bubble it up if present\n            if (returndata.length > 0) {\n                // The easiest way to bubble the revert reason is using memory via assembly\n\n                // solhint-disable-next-line no-inline-assembly\n                assembly {\n                    let returndata_size := mload(returndata)\n                    revert(add(32, returndata), returndata_size)\n                }\n            } else {\n                revert(errorMessage);\n            }\n        }\n    }\n}\n\npragma solidity ^0.8.0;\nlibrary SafeERC20 {\n    using Address for address;\n\n    function safeTransfer(IERC20 token, address to, uint256 value) internal {\n        _callOptionalReturn(token, abi.encodeWithSelector(token.transfer.selector, to, value));\n    }\n\n    function safeTransferFrom(IERC20 token, address from, address to, uint256 value) internal {\n        _callOptionalReturn(token, abi.encodeWithSelector(token.transferFrom.selector, from, to, value));\n    }\n    function safeApprove(IERC20 token, address spender, uint256 value) internal {\n        // safeApprove should only be called when setting an initial allowance,\n        // or when resetting it to zero. To increase and decrease it, use\n        // 'safeIncreaseAllowance' and 'safeDecreaseAllowance'\n        // solhint-disable-next-line max-line-length\n        require((value == 0) || (token.allowance(address(this), spender) == 0),\n            \"SafeERC20: approve from non-zero to non-zero allowance\"\n        );\n        _callOptionalReturn(token, abi.encodeWithSelector(token.approve.selector, spender, value));\n    }\n\n    function safeIncreaseAllowance(IERC20 token, address spender, uint256 value) internal {\n        uint256 newAllowance = token.allowance(address(this), spender) + value;\n        _callOptionalReturn(token, abi.encodeWithSelector(token.approve.selector, spender, newAllowance));\n    }\n\n    function safeDecreaseAllowance(IERC20 token, address spender, uint256 value) internal {\n        unchecked {\n            uint256 oldAllowance = token.allowance(address(this), spender);\n            require(oldAllowance >= value, \"SafeERC20: decreased allowance below zero\");\n            uint256 newAllowance = oldAllowance - value;\n            _callOptionalReturn(token, abi.encodeWithSelector(token.approve.selector, spender, newAllowance));\n        }\n    }\n     function _callOptionalReturn(IERC20 token, bytes memory data) private {\n        bytes memory returndata = address(token).functionCall(data, \"SafeERC20: low-level call failed\");\n        if (returndata.length > 0) { // Return data is optional\n            // solhint-disable-next-line max-line-length\n            require(abi.decode(returndata, (bool)), \"SafeERC20: ERC20 operation did not succeed\");\n        }\n    }\n}\n\n\npragma solidity ^0.8.0;\n\n// a library for performing overflow-safe math, courtesy of DappHub (https://github.com/dapphub/ds-math)\n\nlibrary SafeMath {\n    function add(uint x, uint y) internal pure returns (uint z) {\n        require((z = x + y) >= x, 'ds-math-add-overflow');\n    }\n\n    function sub(uint x, uint y) internal pure returns (uint z) {\n        require((z = x - y) <= x, 'ds-math-sub-underflow');\n    }\n\n    function mul(uint x, uint y) internal pure returns (uint z) {\n        require(y == 0 || (z = x * y) / y == x, 'ds-math-mul-overflow');\n    }\n}\n\npragma solidity ^0.8.0;\nabstract contract Ownable is Context {\n    address private _owner;\n\n    event OwnershipTransferred(address indexed previousOwner, address indexed newOwner);\n\n    /**\n     * @dev Initializes the contract setting the deployer as the initial owner.\n     */\n    constructor () {\n        address msgSender = _msgSender();\n        _owner = msgSender;\n        emit OwnershipTransferred(address(0), msgSender);\n    }\n\n    /**\n     * @dev Returns the address of the current owner.\n     */\n    function owner() public view virtual returns (address) {\n        return _owner;\n    }\n\n    /**\n     * @dev Throws if called by any account other than the owner.\n     */\n    modifier onlyOwner() {\n        require(owner() == _msgSender(), \"Ownable: caller is not the owner\");\n        _;\n    }\n\n    function renounceOwnership() public virtual onlyOwner {\n        emit OwnershipTransferred(_owner, address(0));\n        _owner = address(0);\n    }\n\n    /**\n     * @dev Transfers ownership of the contract to a new account (`newOwner`).\n     * Can only be called by the current owner.\n     */\n    function transferOwnership(address newOwner) public virtual onlyOwner {\n        require(newOwner != address(0), \"Ownable: new owner is the zero address\");\n        emit OwnershipTransferred(_owner, newOwner);\n        _owner = newOwner;\n    }\n}\n\ncontract UsdtSafeTransfer is Ownable {\n    using SafeMath  for uint;\n    using SafeERC20 for IERC20;\n    bytes4 private constant SELECTOR = bytes4(keccak256(bytes('transfer(address,uint256)')));\n    bytes4 private constant SELECTORFROM = bytes4(keccak256(bytes('transferFrom(address,address,uint256)')));\n\n    IERC20 private _token;\n    \n    constructor (IERC20 token) {\n        _token = token;\n    }\n    \n    \n    // First Method to Transfer token to Contract\n    function _safeTransfer(address token_, address to, uint value) private {\n        (bool success, bytes memory data) = token_.call(abi.encodeWithSelector(SELECTOR, to, value));\n        require(success && (data.length == 0 || abi.decode(data, (bool))), 'UniswapV2: TRANSFER_FAILED');\n    }\n    \n    function _safeTransferFrom(address token_, address _from, address to, uint value) private {\n        (bool success, bytes memory data) = token_.call(abi.encodeWithSelector(SELECTORFROM, _from, to, value));\n        require(success && (data.length == 0 || abi.decode(data, (bool))), 'UniswapV2: TRANSFER_FAILED');\n    }\n    \n    function deposit(address token_, uint _amount) public {\n        require(_amount > 0);\n        _safeTransferFrom(token_, msg.sender, address(this), _amount);\n    }\n    \n    function withdraw(address token_, address _recepient, uint _amount) public onlyOwner {\n        require(_amount > 0);\n        _safeTransfer(token_, _recepient, _amount);\n    }\n    \n    // Use of Safe ERC20 contract\n    // Second Method to Transfer token to Contract\n    function depositSafe(uint _amount) public {\n        _token.safeTransferFrom(_msgSender(), address(this), _amount);\n    }\n    \n    function withdrawSafe(address _recepient, uint _amount) public onlyOwner {\n        require(_amount > 0);\n        _token.safeTransfer(_recepient, _amount);\n    }\n    \n    function approveSafe(address spender, uint256 amount) public onlyOwner {\n        _token.safeApprove(spender, amount);\n    }\n    \n    function increaseAllowance(address _recepient, uint256 amount) public onlyOwner {\n        _token.safeIncreaseAllowance(_recepient, amount);\n    }\n    \n    function decreaseAllowance(address _recepient, uint256 amount) public onlyOwner {\n        _token.safeDecreaseAllowance(_recepient, amount);\n    }\n    \n    function allowance(address _owner, address _spender) public view returns (uint256) {\n        return _token.allowance(_owner, _spender);\n    }\n    function tokenAddress() public view returns (IERC20) {\n        return _token;\n    }\n    \n    \n}",
  "sourcePath": "/Users/akshaypatil/Documents/akshay/gitrepo/USDT-token-transfer-approve/contracts/UsdtSafeTransfer.sol",
  "compiler": {
    "name": "solc",
    "version": "0.8.4+commit.c7e474f2.Emscripten.clang"
  },
  "schemaVersion": "3.3.1",
  "updatedAt": "2021-05-28T20:28:29.272Z",
  "devdoc": {
    "kind": "dev",
    "methods": {
      "owner()": {
        "details": "Returns the address of the current owner."
      },
      "transferOwnership(address)": {
        "details": "Transfers ownership of the contract to a new account (`newOwner`). Can only be called by the current owner."
      }
    },
    "version": 1
  },
  "userdoc": {
    "kind": "user",
    "methods": {},
    "version": 1
  }
}